{
  "contractName": "BrylliteToken",
  "abi": [
    {
      "constant": true,
      "inputs": [],
      "name": "name",
      "outputs": [
        {
          "name": "",
          "type": "string"
        }
      ],
      "payable": false,
      "stateMutability": "view",
      "type": "function"
    },
    {
      "constant": false,
      "inputs": [
        {
          "name": "_spender",
          "type": "address"
        },
        {
          "name": "_value",
          "type": "uint256"
        }
      ],
      "name": "approve",
      "outputs": [
        {
          "name": "",
          "type": "bool"
        }
      ],
      "payable": false,
      "stateMutability": "nonpayable",
      "type": "function"
    },
    {
      "constant": true,
      "inputs": [],
      "name": "totalSupply",
      "outputs": [
        {
          "name": "",
          "type": "uint256"
        }
      ],
      "payable": false,
      "stateMutability": "view",
      "type": "function"
    },
    {
      "constant": true,
      "inputs": [],
      "name": "pausedPublic",
      "outputs": [
        {
          "name": "",
          "type": "bool"
        }
      ],
      "payable": false,
      "stateMutability": "view",
      "type": "function"
    },
    {
      "constant": true,
      "inputs": [],
      "name": "decimals",
      "outputs": [
        {
          "name": "",
          "type": "uint8"
        }
      ],
      "payable": false,
      "stateMutability": "view",
      "type": "function"
    },
    {
      "constant": true,
      "inputs": [],
      "name": "pausedOwnerAdmin",
      "outputs": [
        {
          "name": "",
          "type": "bool"
        }
      ],
      "payable": false,
      "stateMutability": "view",
      "type": "function"
    },
    {
      "constant": false,
      "inputs": [
        {
          "name": "_spender",
          "type": "address"
        },
        {
          "name": "_subtractedValue",
          "type": "uint256"
        }
      ],
      "name": "decreaseApproval",
      "outputs": [
        {
          "name": "success",
          "type": "bool"
        }
      ],
      "payable": false,
      "stateMutability": "nonpayable",
      "type": "function"
    },
    {
      "constant": true,
      "inputs": [
        {
          "name": "_owner",
          "type": "address"
        }
      ],
      "name": "balanceOf",
      "outputs": [
        {
          "name": "balance",
          "type": "uint256"
        }
      ],
      "payable": false,
      "stateMutability": "view",
      "type": "function"
    },
    {
      "constant": true,
      "inputs": [],
      "name": "owner",
      "outputs": [
        {
          "name": "",
          "type": "address"
        }
      ],
      "payable": false,
      "stateMutability": "view",
      "type": "function"
    },
    {
      "constant": true,
      "inputs": [],
      "name": "symbol",
      "outputs": [
        {
          "name": "",
          "type": "string"
        }
      ],
      "payable": false,
      "stateMutability": "view",
      "type": "function"
    },
    {
      "constant": false,
      "inputs": [
        {
          "name": "_spender",
          "type": "address"
        },
        {
          "name": "_addedValue",
          "type": "uint256"
        }
      ],
      "name": "increaseApproval",
      "outputs": [
        {
          "name": "success",
          "type": "bool"
        }
      ],
      "payable": false,
      "stateMutability": "nonpayable",
      "type": "function"
    },
    {
      "constant": true,
      "inputs": [
        {
          "name": "_owner",
          "type": "address"
        },
        {
          "name": "_spender",
          "type": "address"
        }
      ],
      "name": "allowance",
      "outputs": [
        {
          "name": "",
          "type": "uint256"
        }
      ],
      "payable": false,
      "stateMutability": "view",
      "type": "function"
    },
    {
      "constant": false,
      "inputs": [
        {
          "name": "newPausedPublic",
          "type": "bool"
        },
        {
          "name": "newPausedOwnerAdmin",
          "type": "bool"
        }
      ],
      "name": "pause",
      "outputs": [],
      "payable": false,
      "stateMutability": "nonpayable",
      "type": "function"
    },
    {
      "constant": false,
      "inputs": [
        {
          "name": "newOwner",
          "type": "address"
        }
      ],
      "name": "transferOwnership",
      "outputs": [],
      "payable": false,
      "stateMutability": "nonpayable",
      "type": "function"
    },
    {
      "constant": true,
      "inputs": [],
      "name": "admin",
      "outputs": [
        {
          "name": "",
          "type": "address"
        }
      ],
      "payable": false,
      "stateMutability": "view",
      "type": "function"
    },
    {
      "inputs": [
        {
          "name": "_admin",
          "type": "address"
        },
        {
          "name": "_totalTokenAmount",
          "type": "uint256"
        }
      ],
      "payable": false,
      "stateMutability": "nonpayable",
      "type": "constructor"
    },
    {
      "payable": true,
      "stateMutability": "payable",
      "type": "fallback"
    },
    {
      "anonymous": false,
      "inputs": [
        {
          "indexed": false,
          "name": "target",
          "type": "address"
        },
        {
          "indexed": false,
          "name": "frozen",
          "type": "bool"
        }
      ],
      "name": "FrozenFunds",
      "type": "event"
    },
    {
      "anonymous": false,
      "inputs": [
        {
          "indexed": false,
          "name": "target",
          "type": "address"
        },
        {
          "indexed": false,
          "name": "time",
          "type": "uint256"
        }
      ],
      "name": "LockFundsReleaseTime",
      "type": "event"
    },
    {
      "anonymous": false,
      "inputs": [
        {
          "indexed": true,
          "name": "_burner",
          "type": "address"
        },
        {
          "indexed": false,
          "name": "_value",
          "type": "uint256"
        }
      ],
      "name": "Burn",
      "type": "event"
    },
    {
      "anonymous": false,
      "inputs": [
        {
          "indexed": true,
          "name": "previousAdmin",
          "type": "address"
        },
        {
          "indexed": true,
          "name": "newAdmin",
          "type": "address"
        }
      ],
      "name": "AdminTransferred",
      "type": "event"
    },
    {
      "anonymous": false,
      "inputs": [
        {
          "indexed": false,
          "name": "newState",
          "type": "bool"
        }
      ],
      "name": "PausePublic",
      "type": "event"
    },
    {
      "anonymous": false,
      "inputs": [
        {
          "indexed": false,
          "name": "newState",
          "type": "bool"
        }
      ],
      "name": "PauseOwnerAdmin",
      "type": "event"
    },
    {
      "anonymous": false,
      "inputs": [
        {
          "indexed": true,
          "name": "previousOwner",
          "type": "address"
        },
        {
          "indexed": true,
          "name": "newOwner",
          "type": "address"
        }
      ],
      "name": "OwnershipTransferred",
      "type": "event"
    },
    {
      "anonymous": false,
      "inputs": [
        {
          "indexed": true,
          "name": "owner",
          "type": "address"
        },
        {
          "indexed": true,
          "name": "spender",
          "type": "address"
        },
        {
          "indexed": false,
          "name": "value",
          "type": "uint256"
        }
      ],
      "name": "Approval",
      "type": "event"
    },
    {
      "anonymous": false,
      "inputs": [
        {
          "indexed": true,
          "name": "from",
          "type": "address"
        },
        {
          "indexed": true,
          "name": "to",
          "type": "address"
        },
        {
          "indexed": false,
          "name": "value",
          "type": "uint256"
        }
      ],
      "name": "Transfer",
      "type": "event"
    },
    {
      "constant": false,
      "inputs": [
        {
          "name": "_to",
          "type": "address"
        },
        {
          "name": "_value",
          "type": "uint256"
        }
      ],
      "name": "transfer",
      "outputs": [
        {
          "name": "",
          "type": "bool"
        }
      ],
      "payable": false,
      "stateMutability": "nonpayable",
      "type": "function"
    },
    {
      "constant": false,
      "inputs": [
        {
          "name": "_from",
          "type": "address"
        },
        {
          "name": "_to",
          "type": "address"
        },
        {
          "name": "_value",
          "type": "uint256"
        }
      ],
      "name": "transferFrom",
      "outputs": [
        {
          "name": "",
          "type": "bool"
        }
      ],
      "payable": false,
      "stateMutability": "nonpayable",
      "type": "function"
    },
    {
      "constant": true,
      "inputs": [
        {
          "name": "_addr",
          "type": "address"
        }
      ],
      "name": "getLockFundsReleaseTime",
      "outputs": [
        {
          "name": "",
          "type": "uint256"
        }
      ],
      "payable": false,
      "stateMutability": "view",
      "type": "function"
    },
    {
      "constant": false,
      "inputs": [
        {
          "name": "newInvestorList",
          "type": "address[]"
        },
        {
          "name": "releaseTime",
          "type": "uint256"
        }
      ],
      "name": "addInvestor",
      "outputs": [],
      "payable": false,
      "stateMutability": "nonpayable",
      "type": "function"
    },
    {
      "constant": false,
      "inputs": [
        {
          "name": "investorList",
          "type": "address[]"
        }
      ],
      "name": "removeInvestor",
      "outputs": [],
      "payable": false,
      "stateMutability": "nonpayable",
      "type": "function"
    },
    {
      "constant": false,
      "inputs": [
        {
          "name": "_value",
          "type": "uint256"
        }
      ],
      "name": "burn",
      "outputs": [
        {
          "name": "",
          "type": "bool"
        }
      ],
      "payable": false,
      "stateMutability": "nonpayable",
      "type": "function"
    },
    {
      "constant": false,
      "inputs": [
        {
          "name": "_from",
          "type": "address"
        },
        {
          "name": "_value",
          "type": "uint256"
        }
      ],
      "name": "burnFrom",
      "outputs": [
        {
          "name": "",
          "type": "bool"
        }
      ],
      "payable": false,
      "stateMutability": "nonpayable",
      "type": "function"
    },
    {
      "constant": false,
      "inputs": [
        {
          "name": "token",
          "type": "address"
        },
        {
          "name": "amount",
          "type": "uint256"
        }
      ],
      "name": "emergencyERC20Drain",
      "outputs": [],
      "payable": false,
      "stateMutability": "nonpayable",
      "type": "function"
    },
    {
      "constant": false,
      "inputs": [
        {
          "name": "newAdmin",
          "type": "address"
        }
      ],
      "name": "changeAdmin",
      "outputs": [],
      "payable": false,
      "stateMutability": "nonpayable",
      "type": "function"
    }
  ],
  "bytecode": "0x60606040526001600360146101000a81548160ff0219169083151502179055506000600360156101000a81548160ff021916908315150217905550341561004557600080fd5b6040516040806128138339810160405280805190602001909190805190602001909190505033600360006101000a81548173ffffffffffffffffffffffffffffffffffffffff021916908373ffffffffffffffffffffffffffffffffffffffff16021790555081600460006101000a81548173ffffffffffffffffffffffffffffffffffffffff021916908373ffffffffffffffffffffffffffffffffffffffff1602179055508060008190555080600160003373ffffffffffffffffffffffffffffffffffffffff1673ffffffffffffffffffffffffffffffffffffffff168152602001908152602001600020819055503373ffffffffffffffffffffffffffffffffffffffff16600073ffffffffffffffffffffffffffffffffffffffff167fddf252ad1be2c89b69c2b068fc378daa952ba7f163c4a11628f55a4df523b3ef836040518082815260200191505060405180910390a35050612665806101ae6000396000f30060606040526004361061013e576000357c0100000000000000000000000000000000000000000000000000000000900463ffffffff16806306fdde0314610143578063095ea7b3146101d157806318160ddd1461022b57806323b872dd1461025457806324bb7c26146102cd5780632fffb3f9146102fa578063313ce5671461034757806342966c681461037657806364779ad7146103b157806366188463146103de57806370a082311461043857806379cc6790146104855780638d43ab34146104df5780638da5cb5b146105425780638f2839701461059757806395d89b41146105d0578063a9059cbb1461065e578063b9490ec0146106b8578063d73dd62314610712578063db0e16f11461076c578063dd62ed3e146107ae578063ddeb50941461081a578063f2fde38b1461084a578063f851a44014610883575b600080fd5b341561014e57600080fd5b6101566108d8565b6040518080602001828103825283818151815260200191508051906020019080838360005b8381101561019657808201518184015260208101905061017b565b50505050905090810190601f1680156101c35780820380516001836020036101000a031916815260200191505b509250505060405180910390f35b34156101dc57600080fd5b610211600480803573ffffffffffffffffffffffffffffffffffffffff16906020019091908035906020019091905050610911565b604051808215151515815260200191505060405180910390f35b341561023657600080fd5b61023e610a0f565b6040518082815260200191505060405180910390f35b341561025f57600080fd5b6102b3600480803573ffffffffffffffffffffffffffffffffffffffff1690602001909190803573ffffffffffffffffffffffffffffffffffffffff16906020019091908035906020019091905050610a15565b604051808215151515815260200191505060405180910390f35b34156102d857600080fd5b6102e0610ad5565b604051808215151515815260200191505060405180910390f35b341561030557600080fd5b610331600480803573ffffffffffffffffffffffffffffffffffffffff16906020019091905050610ae8565b6040518082815260200191505060405180910390f35b341561035257600080fd5b61035a610bdb565b604051808260ff1660ff16815260200191505060405180910390f35b341561038157600080fd5b6103976004808035906020019091905050610be0565b604051808215151515815260200191505060405180910390f35b34156103bc57600080fd5b6103c4610d4f565b604051808215151515815260200191505060405180910390f35b34156103e957600080fd5b61041e600480803573ffffffffffffffffffffffffffffffffffffffff16906020019091908035906020019091905050610d62565b604051808215151515815260200191505060405180910390f35b341561044357600080fd5b61046f600480803573ffffffffffffffffffffffffffffffffffffffff16906020019091905050610e60565b6040518082815260200191505060405180910390f35b341561049057600080fd5b6104c5600480803573ffffffffffffffffffffffffffffffffffffffff16906020019091908035906020019091905050610ea9565b604051808215151515815260200191505060405180910390f35b34156104ea57600080fd5b610540600480803590602001908201803590602001908080602002602001604051908101604052809392919081815260200183836020028082843782019150505050505091908035906020019091905050610ecf565b005b341561054d57600080fd5b610555610fb8565b604051808273ffffffffffffffffffffffffffffffffffffffff1673ffffffffffffffffffffffffffffffffffffffff16815260200191505060405180910390f35b34156105a257600080fd5b6105ce600480803573ffffffffffffffffffffffffffffffffffffffff16906020019091905050610fde565b005b34156105db57600080fd5b6105e36110fa565b6040518080602001828103825283818151815260200191508051906020019080838360005b83811015610623578082015181840152602081019050610608565b50505050905090810190601f1680156106505780820380516001836020036101000a031916815260200191505b509250505060405180910390f35b341561066957600080fd5b61069e600480803573ffffffffffffffffffffffffffffffffffffffff16906020019091908035906020019091905050611133565b604051808215151515815260200191505060405180910390f35b34156106c357600080fd5b6107106004808035906020019082018035906020019080806020026020016040519081016040528093929190818152602001838360200280828437820191505050505050919050506111d3565b005b341561071d57600080fd5b610752600480803573ffffffffffffffffffffffffffffffffffffffff16906020019091908035906020019091905050611306565b604051808215151515815260200191505060405180910390f35b341561077757600080fd5b6107ac600480803573ffffffffffffffffffffffffffffffffffffffff16906020019091908035906020019091905050611404565b005b34156107b957600080fd5b610804600480803573ffffffffffffffffffffffffffffffffffffffff1690602001909190803573ffffffffffffffffffffffffffffffffffffffff1690602001909190505061154d565b6040518082815260200191505060405180910390f35b341561082557600080fd5b6108486004808035151590602001909190803515159060200190919050506115d4565b005b341561085557600080fd5b610881600480803573ffffffffffffffffffffffffffffffffffffffff16906020019091905050611702565b005b341561088e57600080fd5b61089661185a565b604051808273ffffffffffffffffffffffffffffffffffffffff1673ffffffffffffffffffffffffffffffffffffffff16815260200191505060405180910390f35b6040805190810160405280600881526020017f4272796c6c69746500000000000000000000000000000000000000000000000081525081565b6000600360149054906101000a900460ff16156109fd57600360159054906101000a900460ff1615156109f757600460009054906101000a900473ffffffffffffffffffffffffffffffffffffffff1673ffffffffffffffffffffffffffffffffffffffff163373ffffffffffffffffffffffffffffffffffffffff1614806109e75750600360009054906101000a900473ffffffffffffffffffffffffffffffffffffffff1673ffffffffffffffffffffffffffffffffffffffff163373ffffffffffffffffffffffffffffffffffffffff16145b15156109f257600080fd5b6109fc565b600080fd5b5b610a078383611880565b905092915050565b60005481565b6000610a1f611972565b1515610a2a57600080fd5b82600073ffffffffffffffffffffffffffffffffffffffff168173ffffffffffffffffffffffffffffffffffffffff1614151515610a6757600080fd5b3073ffffffffffffffffffffffffffffffffffffffff168173ffffffffffffffffffffffffffffffffffffffff1614151515610aa257600080fd5b610aab85610ae8565b610ab361198c565b10151515610ac057600080fd5b610acb858585611994565b9150509392505050565b600360149054906101000a900460ff1681565b60007f9313d0f395b2d034245be203754d5c647c74ad1464340b72b35a052b2a012cf982600560008573ffffffffffffffffffffffffffffffffffffffff1673ffffffffffffffffffffffffffffffffffffffff16815260200190815260200160002054604051808373ffffffffffffffffffffffffffffffffffffffff1673ffffffffffffffffffffffffffffffffffffffff1681526020018281526020019250505060405180910390a1600560008373ffffffffffffffffffffffffffffffffffffffff1673ffffffffffffffffffffffffffffffffffffffff168152602001908152602001600020549050919050565b601281565b6000610c3482600160003373ffffffffffffffffffffffffffffffffffffffff1673ffffffffffffffffffffffffffffffffffffffff16815260200190815260200160002054611a9490919063ffffffff16565b600160003373ffffffffffffffffffffffffffffffffffffffff1673ffffffffffffffffffffffffffffffffffffffff16815260200190815260200160002081905550610c8c82600054611a9490919063ffffffff16565b6000819055503373ffffffffffffffffffffffffffffffffffffffff167fcc16f5dbb4873280815c1ee09dbd06736cffcc184412cf7a71a0fdb75d397ca5836040518082815260200191505060405180910390a2600073ffffffffffffffffffffffffffffffffffffffff163373ffffffffffffffffffffffffffffffffffffffff167fddf252ad1be2c89b69c2b068fc378daa952ba7f163c4a11628f55a4df523b3ef846040518082815260200191505060405180910390a360019050919050565b600360159054906101000a900460ff1681565b6000600360149054906101000a900460ff1615610e4e57600360159054906101000a900460ff161515610e4857600460009054906101000a900473ffffffffffffffffffffffffffffffffffffffff1673ffffffffffffffffffffffffffffffffffffffff163373ffffffffffffffffffffffffffffffffffffffff161480610e385750600360009054906101000a900473ffffffffffffffffffffffffffffffffffffffff1673ffffffffffffffffffffffffffffffffffffffff163373ffffffffffffffffffffffffffffffffffffffff16145b1515610e4357600080fd5b610e4d565b600080fd5b5b610e588383611aad565b905092915050565b6000600160008373ffffffffffffffffffffffffffffffffffffffff1673ffffffffffffffffffffffffffffffffffffffff168152602001908152602001600020549050919050565b6000610eb6833384610a15565b1515610ebe57fe5b610ec782610be0565b905092915050565b6000600360009054906101000a900473ffffffffffffffffffffffffffffffffffffffff1673ffffffffffffffffffffffffffffffffffffffff163373ffffffffffffffffffffffffffffffffffffffff16141515610f2d57600080fd5b610f3561198c565b821115610fb357600090505b8251811015610fb25781600560008584815181101515610f5d57fe5b9060200190602002015173ffffffffffffffffffffffffffffffffffffffff1673ffffffffffffffffffffffffffffffffffffffff168152602001908152602001600020819055508080600101915050610f41565b5b505050565b600360009054906101000a900473ffffffffffffffffffffffffffffffffffffffff1681565b600360009054906101000a900473ffffffffffffffffffffffffffffffffffffffff1673ffffffffffffffffffffffffffffffffffffffff163373ffffffffffffffffffffffffffffffffffffffff1614151561103a57600080fd5b8073ffffffffffffffffffffffffffffffffffffffff16600460009054906101000a900473ffffffffffffffffffffffffffffffffffffffff1673ffffffffffffffffffffffffffffffffffffffff167ff8ccb027dfcd135e000e9d45e6cc2d662578a8825d4c45b5e32e0adf67e79ec660405160405180910390a380600460006101000a81548173ffffffffffffffffffffffffffffffffffffffff021916908373ffffffffffffffffffffffffffffffffffffffff16021790555050565b6040805190810160405280600381526020017f425243000000000000000000000000000000000000000000000000000000000081525081565b600061113d611972565b151561114857600080fd5b82600073ffffffffffffffffffffffffffffffffffffffff168173ffffffffffffffffffffffffffffffffffffffff161415151561118557600080fd5b3073ffffffffffffffffffffffffffffffffffffffff168173ffffffffffffffffffffffffffffffffffffffff16141515156111c057600080fd5b6111ca8484611d3e565b91505092915050565b6000600360009054906101000a900473ffffffffffffffffffffffffffffffffffffffff1673ffffffffffffffffffffffffffffffffffffffff163373ffffffffffffffffffffffffffffffffffffffff1614151561123157600080fd5b600090505b815181101561130257600060056000848481518110151561125357fe5b9060200190602002015173ffffffffffffffffffffffffffffffffffffffff1673ffffffffffffffffffffffffffffffffffffffff168152602001908152602001600020819055506005600083838151811015156112ad57fe5b9060200190602002015173ffffffffffffffffffffffffffffffffffffffff1673ffffffffffffffffffffffffffffffffffffffff168152602001908152602001600020600090558080600101915050611236565b5050565b6000600360149054906101000a900460ff16156113f257600360159054906101000a900460ff1615156113ec57600460009054906101000a900473ffffffffffffffffffffffffffffffffffffffff1673ffffffffffffffffffffffffffffffffffffffff163373ffffffffffffffffffffffffffffffffffffffff1614806113dc5750600360009054906101000a900473ffffffffffffffffffffffffffffffffffffffff1673ffffffffffffffffffffffffffffffffffffffff163373ffffffffffffffffffffffffffffffffffffffff16145b15156113e757600080fd5b6113f1565b600080fd5b5b6113fc8383611e3c565b905092915050565b600360009054906101000a900473ffffffffffffffffffffffffffffffffffffffff1673ffffffffffffffffffffffffffffffffffffffff163373ffffffffffffffffffffffffffffffffffffffff1614151561146057600080fd5b8173ffffffffffffffffffffffffffffffffffffffff1663a9059cbb600360009054906101000a900473ffffffffffffffffffffffffffffffffffffffff16836000604051602001526040518363ffffffff167c0100000000000000000000000000000000000000000000000000000000028152600401808373ffffffffffffffffffffffffffffffffffffffff1673ffffffffffffffffffffffffffffffffffffffff16815260200182815260200192505050602060405180830381600087803b151561152d57600080fd5b6102c65a03f1151561153e57600080fd5b50505060405180519050505050565b6000600260008473ffffffffffffffffffffffffffffffffffffffff1673ffffffffffffffffffffffffffffffffffffffff16815260200190815260200160002060008373ffffffffffffffffffffffffffffffffffffffff1673ffffffffffffffffffffffffffffffffffffffff16815260200190815260200160002054905092915050565b600360009054906101000a900473ffffffffffffffffffffffffffffffffffffffff1673ffffffffffffffffffffffffffffffffffffffff163373ffffffffffffffffffffffffffffffffffffffff1614151561163057600080fd5b60001515821515148015611648575060011515811515145b15151561165457600080fd5b81600360146101000a81548160ff02191690831515021790555080600360156101000a81548160ff0219169083151502179055507fa14d191ca4f53bfcf003c65d429362010a2d3d68bc0c50cce4bdc0fccf661fb082604051808215151515815260200191505060405180910390a17fc77636fc4a62a1fa193ef538c0b7993a1313a0d9c0a9173058cebcd3239ef7b581604051808215151515815260200191505060405180910390a15050565b600360009054906101000a900473ffffffffffffffffffffffffffffffffffffffff1673ffffffffffffffffffffffffffffffffffffffff163373ffffffffffffffffffffffffffffffffffffffff1614151561175e57600080fd5b600073ffffffffffffffffffffffffffffffffffffffff168173ffffffffffffffffffffffffffffffffffffffff161415151561179a57600080fd5b8073ffffffffffffffffffffffffffffffffffffffff16600360009054906101000a900473ffffffffffffffffffffffffffffffffffffffff1673ffffffffffffffffffffffffffffffffffffffff167f8be0079c531659141344cd1fd0a4f28419497f9722a3daafe3b4186f6b6457e060405160405180910390a380600360006101000a81548173ffffffffffffffffffffffffffffffffffffffff021916908373ffffffffffffffffffffffffffffffffffffffff16021790555050565b600460009054906101000a900473ffffffffffffffffffffffffffffffffffffffff1681565b600081600260003373ffffffffffffffffffffffffffffffffffffffff1673ffffffffffffffffffffffffffffffffffffffff16815260200190815260200160002060008573ffffffffffffffffffffffffffffffffffffffff1673ffffffffffffffffffffffffffffffffffffffff168152602001908152602001600020819055508273ffffffffffffffffffffffffffffffffffffffff163373ffffffffffffffffffffffffffffffffffffffff167f8c5be1e5ebec7d5bd14f71427d1e84f3dd0314c0f7b2291e5b200ac8c7c3b925846040518082815260200191505060405180910390a36001905092915050565b600061197d33610ae8565b61198561198c565b1015905090565b600042905090565b6000600360149054906101000a900460ff1615611a8057600360159054906101000a900460ff161515611a7a57600460009054906101000a900473ffffffffffffffffffffffffffffffffffffffff1673ffffffffffffffffffffffffffffffffffffffff163373ffffffffffffffffffffffffffffffffffffffff161480611a6a5750600360009054906101000a900473ffffffffffffffffffffffffffffffffffffffff1673ffffffffffffffffffffffffffffffffffffffff163373ffffffffffffffffffffffffffffffffffffffff16145b1515611a7557600080fd5b611a7f565b600080fd5b5b611a8b848484612038565b90509392505050565b6000828211151515611aa257fe5b818303905092915050565b600080600260003373ffffffffffffffffffffffffffffffffffffffff1673ffffffffffffffffffffffffffffffffffffffff16815260200190815260200160002060008573ffffffffffffffffffffffffffffffffffffffff1673ffffffffffffffffffffffffffffffffffffffff16815260200190815260200160002054905080831115611bbe576000600260003373ffffffffffffffffffffffffffffffffffffffff1673ffffffffffffffffffffffffffffffffffffffff16815260200190815260200160002060008673ffffffffffffffffffffffffffffffffffffffff1673ffffffffffffffffffffffffffffffffffffffff16815260200190815260200160002081905550611c52565b611bd18382611a9490919063ffffffff16565b600260003373ffffffffffffffffffffffffffffffffffffffff1673ffffffffffffffffffffffffffffffffffffffff16815260200190815260200160002060008673ffffffffffffffffffffffffffffffffffffffff1673ffffffffffffffffffffffffffffffffffffffff168152602001908152602001600020819055505b8373ffffffffffffffffffffffffffffffffffffffff163373ffffffffffffffffffffffffffffffffffffffff167f8c5be1e5ebec7d5bd14f71427d1e84f3dd0314c0f7b2291e5b200ac8c7c3b925600260003373ffffffffffffffffffffffffffffffffffffffff1673ffffffffffffffffffffffffffffffffffffffff16815260200190815260200160002060008873ffffffffffffffffffffffffffffffffffffffff1673ffffffffffffffffffffffffffffffffffffffff168152602001908152602001600020546040518082815260200191505060405180910390a3600191505092915050565b6000600360149054906101000a900460ff1615611e2a57600360159054906101000a900460ff161515611e2457600460009054906101000a900473ffffffffffffffffffffffffffffffffffffffff1673ffffffffffffffffffffffffffffffffffffffff163373ffffffffffffffffffffffffffffffffffffffff161480611e145750600360009054906101000a900473ffffffffffffffffffffffffffffffffffffffff1673ffffffffffffffffffffffffffffffffffffffff163373ffffffffffffffffffffffffffffffffffffffff16145b1515611e1f57600080fd5b611e29565b600080fd5b5b611e3483836123f7565b905092915050565b6000611ecd82600260003373ffffffffffffffffffffffffffffffffffffffff1673ffffffffffffffffffffffffffffffffffffffff16815260200190815260200160002060008673ffffffffffffffffffffffffffffffffffffffff1673ffffffffffffffffffffffffffffffffffffffff1681526020019081526020016000205461261b90919063ffffffff16565b600260003373ffffffffffffffffffffffffffffffffffffffff1673ffffffffffffffffffffffffffffffffffffffff16815260200190815260200160002060008573ffffffffffffffffffffffffffffffffffffffff1673ffffffffffffffffffffffffffffffffffffffff168152602001908152602001600020819055508273ffffffffffffffffffffffffffffffffffffffff163373ffffffffffffffffffffffffffffffffffffffff167f8c5be1e5ebec7d5bd14f71427d1e84f3dd0314c0f7b2291e5b200ac8c7c3b925600260003373ffffffffffffffffffffffffffffffffffffffff1673ffffffffffffffffffffffffffffffffffffffff16815260200190815260200160002060008773ffffffffffffffffffffffffffffffffffffffff1673ffffffffffffffffffffffffffffffffffffffff168152602001908152602001600020546040518082815260200191505060405180910390a36001905092915050565b60008073ffffffffffffffffffffffffffffffffffffffff168373ffffffffffffffffffffffffffffffffffffffff161415151561207557600080fd5b600160008573ffffffffffffffffffffffffffffffffffffffff1673ffffffffffffffffffffffffffffffffffffffff1681526020019081526020016000205482111515156120c357600080fd5b600260008573ffffffffffffffffffffffffffffffffffffffff1673ffffffffffffffffffffffffffffffffffffffff16815260200190815260200160002060003373ffffffffffffffffffffffffffffffffffffffff1673ffffffffffffffffffffffffffffffffffffffff16815260200190815260200160002054821115151561214e57600080fd5b6121a082600160008773ffffffffffffffffffffffffffffffffffffffff1673ffffffffffffffffffffffffffffffffffffffff16815260200190815260200160002054611a9490919063ffffffff16565b600160008673ffffffffffffffffffffffffffffffffffffffff1673ffffffffffffffffffffffffffffffffffffffff1681526020019081526020016000208190555061223582600160008673ffffffffffffffffffffffffffffffffffffffff1673ffffffffffffffffffffffffffffffffffffffff1681526020019081526020016000205461261b90919063ffffffff16565b600160008573ffffffffffffffffffffffffffffffffffffffff1673ffffffffffffffffffffffffffffffffffffffff1681526020019081526020016000208190555061230782600260008773ffffffffffffffffffffffffffffffffffffffff1673ffffffffffffffffffffffffffffffffffffffff16815260200190815260200160002060003373ffffffffffffffffffffffffffffffffffffffff1673ffffffffffffffffffffffffffffffffffffffff16815260200190815260200160002054611a9490919063ffffffff16565b600260008673ffffffffffffffffffffffffffffffffffffffff1673ffffffffffffffffffffffffffffffffffffffff16815260200190815260200160002060003373ffffffffffffffffffffffffffffffffffffffff1673ffffffffffffffffffffffffffffffffffffffff168152602001908152602001600020819055508273ffffffffffffffffffffffffffffffffffffffff168473ffffffffffffffffffffffffffffffffffffffff167fddf252ad1be2c89b69c2b068fc378daa952ba7f163c4a11628f55a4df523b3ef846040518082815260200191505060405180910390a3600190509392505050565b60008073ffffffffffffffffffffffffffffffffffffffff168373ffffffffffffffffffffffffffffffffffffffff161415151561243457600080fd5b600160003373ffffffffffffffffffffffffffffffffffffffff1673ffffffffffffffffffffffffffffffffffffffff16815260200190815260200160002054821115151561248257600080fd5b6124d482600160003373ffffffffffffffffffffffffffffffffffffffff1673ffffffffffffffffffffffffffffffffffffffff16815260200190815260200160002054611a9490919063ffffffff16565b600160003373ffffffffffffffffffffffffffffffffffffffff1673ffffffffffffffffffffffffffffffffffffffff1681526020019081526020016000208190555061256982600160008673ffffffffffffffffffffffffffffffffffffffff1673ffffffffffffffffffffffffffffffffffffffff1681526020019081526020016000205461261b90919063ffffffff16565b600160008573ffffffffffffffffffffffffffffffffffffffff1673ffffffffffffffffffffffffffffffffffffffff168152602001908152602001600020819055508273ffffffffffffffffffffffffffffffffffffffff163373ffffffffffffffffffffffffffffffffffffffff167fddf252ad1be2c89b69c2b068fc378daa952ba7f163c4a11628f55a4df523b3ef846040518082815260200191505060405180910390a36001905092915050565b600080828401905083811015151561262f57fe5b80915050929150505600a165627a7a723058209c5adc6db06afeeabb2a941510db719cdd01b31a25a159a84495bd463f8b36910029",
  "source": "pragma solidity ^0.4.18;\nimport './zeppelin/token/PausableToken.sol';\n\n// Pause States\n// There are two flags, pausedPublic and pausedOwnerAdmin.\n//\n// Initial Stage, pausedPublic is true, pausedOwnerAdmin is false. \n// -> only the owner and admin can transfer tokens.\n\n// Second Stage : both are false\n// -> everyone can transfer their own tokens.\n\n// third stage (lock up): both are true\n// -> no token transfer would be allowed.\n\ncontract BrylliteToken is PausableToken {\n\n    string  public  constant name = \"Bryllite\";\n    string  public  constant symbol = \"BRC\";\n    uint8   public  constant decimals = 18;\n\n    enum stage {Initial,First,Second}\n\n    // mapping (address => bool) public frozenAccount;\n    \n     // new feature, Lee\n    mapping(address => uint) approvedInvestorListWithDate;\n\n    // struct _DateTime {\n    //         uint16 year;\n    //         uint8 month;\n    //         uint8 day;\n    //         uint8 hour;\n    //         uint8 minute;\n    //         uint8 second;\n    //         uint8 weekday;\n    // }\n\n    // uint constant DAY_IN_SECONDS = 86400;\n    // uint constant YEAR_IN_SECONDS = 31536000;\n    // uint constant LEAP_YEAR_IN_SECONDS = 31622400;\n\n    // uint constant HOUR_IN_SECONDS = 3600;\n    // uint constant MINUTE_IN_SECONDS = 60;\n    // uint16 constant ORIGIN_YEAR = 1970;\n\n\n    // uint startDate = 1514764800; // 2018-01-01 00:00:00\n    // uint endDate = 1518220800; // 2018-02-10 00:00:00\n\n    // uint diff = (endDate - startDate) / 60 / 60 / 24; // 40 days \n\n    function BrylliteToken( address _admin, uint _totalTokenAmount ) \n    {\n        admin = _admin;\n\n        totalSupply = _totalTokenAmount;\n        balances[msg.sender] = _totalTokenAmount;\n        Transfer(address(0x0), msg.sender, _totalTokenAmount);\n    }\n\n\n   // modifier afterDeadline() { if (now >= deadline) _; }\n    // Freeze funds.\n    event FrozenFunds(address target, bool frozen);\n    event LockFundsReleaseTime(address target, uint time);\n\n    // Owner can set any account into freeze state.\n    // It is helpful in case if account holder has lost his key and he want administrator to freeze account until account key is covered.\n    // @ target : account address\n    // @ state : state of account \n    // function freezeAccount(address target, bool freeze) onlyOwner {\n    //     frozenAccount[target] = freeze;\n    //     FrozenFunds(target, freeze);\n    // }\n\n    //  function totalSupply() constant returns (uint supply) {\n    //     return totalSupply;\n    // }\n\n    function getTime() internal constant returns (uint) {\n        return now;\n    }\n\n    function isUnlocked() internal returns (bool) {\n        return getTime() >= getLockFundsReleaseTime(msg.sender);\n    }\n\n    modifier validDestination( address to )\n    {\n        require(to != address(0x0));\n        require(to != address(this));\n        _;\n    }\n\n    modifier onlyWhenUnlocked()\n    {\n        // require(!frozenAccount[msg.sender]);\n        require(isUnlocked());            \n        _;\n    }\n\n    function transfer(address _to, uint _value) onlyWhenUnlocked validDestination(_to) returns (bool) \n    {\n        // require(!frozenAccount[msg.sender]);\n        return super.transfer(_to, _value);\n    }\n\n    function transferFrom(address _from, address _to, uint _value) onlyWhenUnlocked validDestination(_to) returns (bool) \n    {\n        // require(!frozenAccount[_from]);\n        // require(!frozenAccount[_to]);\n        require(getTime() >= getLockFundsReleaseTime(_from));\n        return super.transferFrom(_from, _to, _value);\n    }\n\n    // function getLockedFundsReleaseTime() internal constant returns (uint x)\n    // {\n    //     return approvedInvestorListWithDate[msg.sender];\n    // }\n\n    function getLockFundsReleaseTime(address _addr) constant returns(uint) \n    {\n        // require(msg.sender == admin || msg.sender == owner);\n        LockFundsReleaseTime(_addr, approvedInvestorListWithDate[_addr]);\n        return approvedInvestorListWithDate[_addr];\n    }\n\n    function addInvestor(address[] newInvestorList, uint releaseTime) onlyOwner public \n    {\n        if(releaseTime > getTime())\n        {\n            for (uint i = 0; i < newInvestorList.length; i++)\n            {\n                approvedInvestorListWithDate[newInvestorList[i]] = releaseTime;\n            }\n        }\n    }\n\n    function removeInvestor(address[] investorList) onlyOwner public \n    {\n        for (uint i = 0; i < investorList.length; i++)\n        {\n            approvedInvestorListWithDate[investorList[i]] = 0;\n            delete(approvedInvestorListWithDate[investorList[i]]);\n        }\n    }\n\n    event Burn(address indexed _burner, uint _value);\n\n    function burn(uint _value) returns (bool)\n    {\n        balances[msg.sender] = balances[msg.sender].sub(_value);\n        totalSupply = totalSupply.sub(_value);\n        Burn(msg.sender, _value);\n        Transfer(msg.sender, address(0x0), _value);\n        return true;\n    }\n\n    function burnFrom(address _from, uint256 _value) returns (bool) \n    {\n        assert( transferFrom( _from, msg.sender, _value ) );\n        return burn(_value);\n    }\n\n    function emergencyERC20Drain( ERC20 token, uint amount ) onlyOwner {\n        token.transfer( owner, amount );\n    }\n\n    event AdminTransferred(address indexed previousAdmin, address indexed newAdmin);\n\n    function changeAdmin(address newAdmin) onlyOwner {\n        AdminTransferred(admin, newAdmin);\n        admin = newAdmin;\n    }\n\n\n    function () public payable \n    {\n        revert();\n    }\n\n\n    // function isLeapYear(uint16 year) public pure returns (bool) {\n    //     if (year % 4 != 0) {\n    //             return false;\n    //     }\n    //     if (year % 100 != 0) {\n    //             return true;\n    //     }\n    //     if (year % 400 != 0) {\n    //             return false;\n    //     }\n    //     return true;\n    // }\n\n    // function toTimestamp(uint16 year, uint8 month, uint8 day, uint8 hour, uint8 minute, uint8 second) public pure returns (uint timestamp) {\n    //     uint16 i;\n\n    //     // Year\n    //     for (i = ORIGIN_YEAR; i < year; i++) {\n    //             if (isLeapYear(i)) {\n    //                     timestamp += LEAP_YEAR_IN_SECONDS;\n    //             }\n    //             else {\n    //                     timestamp += YEAR_IN_SECONDS;\n    //             }\n    //     }\n\n    //     // Month\n    //     uint8[12] memory monthDayCounts;\n    //     monthDayCounts[0] = 31;\n    //     if (isLeapYear(year)) {\n    //             monthDayCounts[1] = 29;\n    //     }\n    //     else {\n    //             monthDayCounts[1] = 28;\n    //     }\n    //     monthDayCounts[2] = 31;\n    //     monthDayCounts[3] = 30;\n    //     monthDayCounts[4] = 31;\n    //     monthDayCounts[5] = 30;\n    //     monthDayCounts[6] = 31;\n    //     monthDayCounts[7] = 31;\n    //     monthDayCounts[8] = 30;\n    //     monthDayCounts[9] = 31;\n    //     monthDayCounts[10] = 30;\n    //     monthDayCounts[11] = 31;\n\n    //     for (i = 1; i < month; i++) {\n    //             timestamp += DAY_IN_SECONDS * monthDayCounts[i - 1];\n    //     }\n\n    //     // Day\n    //     timestamp += DAY_IN_SECONDS * (day - 1);\n    //     // Hour\n    //     timestamp += HOUR_IN_SECONDS * (hour);\n    //     // Minute\n    //     timestamp += MINUTE_IN_SECONDS * (minute);\n    //     // Second\n    //     timestamp += second;\n    //     return timestamp;\n    // }\n}",
  "sourcePath": "/Users/lee/bryllite/test/bryllite/contracts/BrylliteToken.sol",
  "compiler": {
    "name": "solc",
    "version": "0.4.19+commit.c4cbbb05.Emscripten.clang"
  },
  "schemaVersion": "2.0.0",
  "updatedAt": "2018-05-28T04:25:22.920Z"
}