{
  "contractName": "Pausable",
  "abi": [
    {
      "constant": true,
      "inputs": [],
      "name": "pausedPublic",
      "outputs": [
        {
          "name": "",
          "type": "bool"
        }
      ],
      "payable": false,
      "stateMutability": "view",
      "type": "function"
    },
    {
      "constant": true,
      "inputs": [],
      "name": "pausedOwnerAdmin",
      "outputs": [
        {
          "name": "",
          "type": "bool"
        }
      ],
      "payable": false,
      "stateMutability": "view",
      "type": "function"
    },
    {
      "constant": true,
      "inputs": [],
      "name": "owner",
      "outputs": [
        {
          "name": "",
          "type": "address"
        }
      ],
      "payable": false,
      "stateMutability": "view",
      "type": "function"
    },
    {
      "constant": false,
      "inputs": [
        {
          "name": "newOwner",
          "type": "address"
        }
      ],
      "name": "transferOwnership",
      "outputs": [],
      "payable": false,
      "stateMutability": "nonpayable",
      "type": "function"
    },
    {
      "constant": true,
      "inputs": [],
      "name": "admin",
      "outputs": [
        {
          "name": "",
          "type": "address"
        }
      ],
      "payable": false,
      "stateMutability": "view",
      "type": "function"
    },
    {
      "anonymous": false,
      "inputs": [
        {
          "indexed": false,
          "name": "newState",
          "type": "bool"
        }
      ],
      "name": "PausePublic",
      "type": "event"
    },
    {
      "anonymous": false,
      "inputs": [
        {
          "indexed": false,
          "name": "newState",
          "type": "bool"
        }
      ],
      "name": "PauseOwnerAdmin",
      "type": "event"
    },
    {
      "anonymous": false,
      "inputs": [
        {
          "indexed": true,
          "name": "previousOwner",
          "type": "address"
        },
        {
          "indexed": true,
          "name": "newOwner",
          "type": "address"
        }
      ],
      "name": "OwnershipTransferred",
      "type": "event"
    },
    {
      "constant": false,
      "inputs": [
        {
          "name": "newPausedPublic",
          "type": "bool"
        },
        {
          "name": "newPausedOwnerAdmin",
          "type": "bool"
        }
      ],
      "name": "pause",
      "outputs": [],
      "payable": false,
      "stateMutability": "nonpayable",
      "type": "function"
    }
  ],
  "bytecode": "0x60606040526001600060146101000a81548160ff02191690831515021790555060008060156101000a81548160ff021916908315150217905550336000806101000a81548173ffffffffffffffffffffffffffffffffffffffff021916908373ffffffffffffffffffffffffffffffffffffffff160217905550610509806100886000396000f300606060405260043610610078576000357c0100000000000000000000000000000000000000000000000000000000900463ffffffff16806324bb7c261461007d57806364779ad7146100aa5780638da5cb5b146100d7578063ddeb50941461012c578063f2fde38b1461015c578063f851a44014610195575b600080fd5b341561008857600080fd5b6100906101ea565b604051808215151515815260200191505060405180910390f35b34156100b557600080fd5b6100bd6101fd565b604051808215151515815260200191505060405180910390f35b34156100e257600080fd5b6100ea610210565b604051808273ffffffffffffffffffffffffffffffffffffffff1673ffffffffffffffffffffffffffffffffffffffff16815260200191505060405180910390f35b341561013757600080fd5b61015a600480803515159060200190919080351515906020019091905050610235565b005b341561016757600080fd5b610193600480803573ffffffffffffffffffffffffffffffffffffffff16906020019091905050610362565b005b34156101a057600080fd5b6101a86104b7565b604051808273ffffffffffffffffffffffffffffffffffffffff1673ffffffffffffffffffffffffffffffffffffffff16815260200191505060405180910390f35b600060149054906101000a900460ff1681565b600060159054906101000a900460ff1681565b6000809054906101000a900473ffffffffffffffffffffffffffffffffffffffff1681565b6000809054906101000a900473ffffffffffffffffffffffffffffffffffffffff1673ffffffffffffffffffffffffffffffffffffffff163373ffffffffffffffffffffffffffffffffffffffff1614151561029057600080fd5b600015158215151480156102a8575060011515811515145b1515156102b457600080fd5b81600060146101000a81548160ff02191690831515021790555080600060156101000a81548160ff0219169083151502179055507fa14d191ca4f53bfcf003c65d429362010a2d3d68bc0c50cce4bdc0fccf661fb082604051808215151515815260200191505060405180910390a17fc77636fc4a62a1fa193ef538c0b7993a1313a0d9c0a9173058cebcd3239ef7b581604051808215151515815260200191505060405180910390a15050565b6000809054906101000a900473ffffffffffffffffffffffffffffffffffffffff1673ffffffffffffffffffffffffffffffffffffffff163373ffffffffffffffffffffffffffffffffffffffff161415156103bd57600080fd5b600073ffffffffffffffffffffffffffffffffffffffff168173ffffffffffffffffffffffffffffffffffffffff16141515156103f957600080fd5b8073ffffffffffffffffffffffffffffffffffffffff166000809054906101000a900473ffffffffffffffffffffffffffffffffffffffff1673ffffffffffffffffffffffffffffffffffffffff167f8be0079c531659141344cd1fd0a4f28419497f9722a3daafe3b4186f6b6457e060405160405180910390a3806000806101000a81548173ffffffffffffffffffffffffffffffffffffffff021916908373ffffffffffffffffffffffffffffffffffffffff16021790555050565b600160009054906101000a900473ffffffffffffffffffffffffffffffffffffffff16815600a165627a7a723058202fa693d91383bf5460fd6edd2a5ee736d618da89816c36e2393e9aee050be9be0029",
  "source": "pragma solidity ^0.4.18;\n\n// custom Pausable implementation for Bryllite\n\nimport \"../ownership/Ownable.sol\";\n\ncontract Pausable is Ownable {\n  event PausePublic(bool newState);\n  event PauseOwnerAdmin(bool newState);\n\n  bool public pausedPublic = true;\n  bool public pausedOwnerAdmin = false;\n\n  address public admin;\n\n  modifier whenNotPaused() {\n    if(pausedPublic) {\n      if(!pausedOwnerAdmin) {\n        require(msg.sender == admin || msg.sender == owner);\n      } else {\n        revert();\n      }\n    }\n    _;\n  }\n\n  function pause(bool newPausedPublic, bool newPausedOwnerAdmin) onlyOwner public {\n    require(!(newPausedPublic == false && newPausedOwnerAdmin == true));\n\n    pausedPublic = newPausedPublic;\n    pausedOwnerAdmin = newPausedOwnerAdmin;\n\n    PausePublic(newPausedPublic);\n    PauseOwnerAdmin(newPausedOwnerAdmin);\n  }\n}\n",
  "sourcePath": "/Users/lee/bryllite/test/bryllite/contracts/zeppelin/lifecycle/Pausable.sol",
  "compiler": {
    "name": "solc",
    "version": "0.4.19+commit.c4cbbb05.Emscripten.clang"
  },
  "schemaVersion": "2.0.0",
  "updatedAt": "2018-04-18T05:56:45.004Z"
}